{
  "contractName": "SwapCentral",
  "abi": [
    {
      "inputs": [
        {
          "internalType": "contract CentralToken",
          "name": "_centralToken",
          "type": "address"
        }
      ],
      "payable": false,
      "stateMutability": "nonpayable",
      "type": "constructor"
    },
    {
      "anonymous": false,
      "inputs": [
        {
          "indexed": false,
          "internalType": "address",
          "name": "account",
          "type": "address"
        },
        {
          "indexed": false,
          "internalType": "address",
          "name": "token",
          "type": "address"
        },
        {
          "indexed": false,
          "internalType": "uint256",
          "name": "amount",
          "type": "uint256"
        },
        {
          "indexed": false,
          "internalType": "uint256",
          "name": "rate",
          "type": "uint256"
        }
      ],
      "name": "CentralTokensPurchased",
      "type": "event"
    },
    {
      "anonymous": false,
      "inputs": [
        {
          "indexed": false,
          "internalType": "address",
          "name": "account",
          "type": "address"
        },
        {
          "indexed": false,
          "internalType": "address",
          "name": "token",
          "type": "address"
        },
        {
          "indexed": false,
          "internalType": "uint256",
          "name": "amount",
          "type": "uint256"
        },
        {
          "indexed": false,
          "internalType": "uint256",
          "name": "rate",
          "type": "uint256"
        }
      ],
      "name": "CentralTokensSold",
      "type": "event"
    },
    {
      "constant": true,
      "inputs": [],
      "name": "centralToken",
      "outputs": [
        {
          "internalType": "contract CentralToken",
          "name": "",
          "type": "address"
        }
      ],
      "payable": false,
      "stateMutability": "view",
      "type": "function"
    },
    {
      "constant": true,
      "inputs": [],
      "name": "name",
      "outputs": [
        {
          "internalType": "string",
          "name": "",
          "type": "string"
        }
      ],
      "payable": false,
      "stateMutability": "view",
      "type": "function"
    },
    {
      "constant": true,
      "inputs": [],
      "name": "rate",
      "outputs": [
        {
          "internalType": "uint256",
          "name": "",
          "type": "uint256"
        }
      ],
      "payable": false,
      "stateMutability": "view",
      "type": "function"
    },
    {
      "constant": false,
      "inputs": [],
      "name": "buyTokens",
      "outputs": [],
      "payable": true,
      "stateMutability": "payable",
      "type": "function"
    },
    {
      "constant": false,
      "inputs": [
        {
          "internalType": "uint256",
          "name": "_amount",
          "type": "uint256"
        }
      ],
      "name": "sellTokens",
      "outputs": [],
      "payable": false,
      "stateMutability": "nonpayable",
      "type": "function"
    }
  ],
  "bytecode": "0x60c0604052601460808190527f5377617043656e7472616c2045786368616e676500000000000000000000000060a090815261003e916000919061009a565b506103e860025534801561005157600080fd5b5060405161068f38038061068f8339818101604052602081101561007457600080fd5b5051600180546001600160a01b0319166001600160a01b03909216919091179055610135565b828054600181600116156101000203166002900490600052602060002090601f016020900481019282601f106100db57805160ff1916838001178555610108565b82800160010185558215610108579182015b828111156101085782518255916020019190600101906100ed565b50610114929150610118565b5090565b61013291905b80821115610114576000815560010161011e565b90565b61054b806101446000396000f3fe60806040526004361061004a5760003560e01c806306fdde031461004f5780632c4e722e146100d95780636c11bcd314610100578063b72e3fc31461012c578063d0febe4c1461015d575b600080fd5b34801561005b57600080fd5b50610064610165565b6040805160208082528351818301528351919283929083019185019080838360005b8381101561009e578181015183820152602001610086565b50505050905090810190601f1680156100cb5780820380516001836020036101000a031916815260200191505b509250505060405180910390f35b3480156100e557600080fd5b506100ee6101f3565b60408051918252519081900360200190f35b34801561010c57600080fd5b5061012a6004803603602081101561012357600080fd5b50356101f9565b005b34801561013857600080fd5b506101416103a5565b604080516001600160a01b039092168252519081900360200190f35b61012a6103b4565b6000805460408051602060026001851615610100026000190190941693909304601f810184900484028201840190925281815292918301828280156101eb5780601f106101c0576101008083540402835291602001916101eb565b820191906000526020600020905b8154815290600101906020018083116101ce57829003601f168201915b505050505081565b60025481565b6000600254828161020657fe5b0490508047101561021657600080fd5b600154604080516370a0823160e01b8152336004820152905184926001600160a01b0316916370a08231916024808301926020929190829003018186803b15801561026057600080fd5b505afa158015610274573d6000803e3d6000fd5b505050506040513d602081101561028a57600080fd5b5051101561029757600080fd5b604051339082156108fc029083906000818181858888f193505050501580156102c4573d6000803e3d6000fd5b506001546040805163c0d84ce560e01b81523360048201523060248201526044810185905290516001600160a01b039092169163c0d84ce5916064808201926020929091908290030181600087803b15801561031f57600080fd5b505af1158015610333573d6000803e3d6000fd5b505050506040513d602081101561034957600080fd5b5050600154600254604080513381526001600160a01b0390931660208401528281018590526060830191909152517f40d6546234ae63ffe46fbd4283f611b3b41666bb5b2706ae68203cd9a4118c159181900360800190a15050565b6001546001600160a01b031681565b600254600154604080516370a0823160e01b81523060048201529051349093029283926001600160a01b0316916370a08231916024808301926020929190829003018186803b15801561040657600080fd5b505afa15801561041a573d6000803e3d6000fd5b505050506040513d602081101561043057600080fd5b5051101561043d57600080fd5b6001546040805163a9059cbb60e01b81523360048201526024810184905290516001600160a01b039092169163a9059cbb916044808201926020929091908290030181600087803b15801561049157600080fd5b505af11580156104a5573d6000803e3d6000fd5b505050506040513d60208110156104bb57600080fd5b5050600154600254604080513381526001600160a01b0390931660208401528281018490526060830191909152517fbcf2848284fb5546403d3564bec6835a7a5cf64b84d5a7d1906449b412477c659181900360800190a15056fea265627a7a72315820ba305ac551481b4b156fd631e3c1bf82cb089251a47e0079d322d0cfe86635ee64736f6c63430005100032",
  "source": "pragma solidity ^0.5.0;\r\nimport \"./CentralToken.sol\";\r\n\r\ncontract SwapCentral{\r\n  string public name = \"SwapCentral Exchange\";\r\n  CentralToken public centralToken;\r\n  uint public rate = 1000;\r\n\r\n  event CentralTokensPurchased(\r\n    address account,\r\n    address token,\r\n    uint amount,\r\n    uint rate\r\n  );\r\n  event CentralTokensSold(\r\n    address account,\r\n    address token,\r\n    uint amount,\r\n    uint rate\r\n  );\r\n\r\n  constructor(CentralToken _centralToken) public {\r\n    centralToken = _centralToken;\r\n  }\r\n\r\n  //redemtion rate = # of tokens they receieve for 1 ether\r\n  //tokemAmount = amount of eth * redemtion rate\r\n  function buyTokens() public payable {\r\n    //Get how much centralTokens to be sent based on rate\r\n    uint tokenAmount = msg.value * rate;\r\n    //ensure exchange has enough centralTokens stored\r\n    require(centralToken.balanceOf(address(this)) >= tokenAmount);\r\n\r\n    centralToken.transfer(msg.sender,tokenAmount);\r\n\r\n    //Emit purchase event\r\n    emit CentralTokensPurchased(msg.sender, address(centralToken), tokenAmount, rate);\r\n  }\r\n\r\n  function sellTokens(uint _amount) public {\r\n    //calculate ether to send\r\n    uint etherAmount = _amount / rate;\r\n    //check contract balance\r\n    require(address(this).balance >= etherAmount);\r\n    //user can't sell more than they have\r\n    require(centralToken.balanceOf(msg.sender) >= _amount);\r\n    //send ether to investor\r\n    msg.sender.transfer(etherAmount);\r\n\r\n    //receieve SCT Tokens\r\n    centralToken.TransferFrom(msg.sender, address(this), _amount);\r\n    emit CentralTokensSold(msg.sender, address(centralToken),_amount, rate);\r\n  }\r\n}\r\n",
  "sourcePath": "C:/Users/jjrab/OneDrive/Desktop/Dappdev/SwapCentral/contracts/SwapCentral.sol",
  "compiler": {
    "name": "solc",
    "version": "0.5.16+commit.9c3226ce.Emscripten.clang"
  },
  "schemaVersion": "3.3.4",
  "updatedAt": "2021-05-02T02:29:24.326Z",
  "networkType": "ethereum",
  "devdoc": {
    "methods": {}
  },
  "userdoc": {
    "methods": {}
  }
}