{
  "contractName": "SwapCentral",
  "abi": [
    {
      "inputs": [
        {
          "internalType": "contract CentralToken",
          "name": "_centralToken",
          "type": "address"
        }
      ],
      "payable": false,
      "stateMutability": "nonpayable",
      "type": "constructor"
    },
    {
      "constant": true,
      "inputs": [],
      "name": "centralToken",
      "outputs": [
        {
          "internalType": "contract CentralToken",
          "name": "",
          "type": "address"
        }
      ],
      "payable": false,
      "stateMutability": "view",
      "type": "function"
    },
    {
      "constant": true,
      "inputs": [],
      "name": "name",
      "outputs": [
        {
          "internalType": "string",
          "name": "",
          "type": "string"
        }
      ],
      "payable": false,
      "stateMutability": "view",
      "type": "function"
    },
    {
      "constant": true,
      "inputs": [],
      "name": "rate",
      "outputs": [
        {
          "internalType": "uint256",
          "name": "",
          "type": "uint256"
        }
      ],
      "payable": false,
      "stateMutability": "view",
      "type": "function"
    },
    {
      "constant": false,
      "inputs": [],
      "name": "buyTokens",
      "outputs": [],
      "payable": true,
      "stateMutability": "payable",
      "type": "function"
    }
  ],
  "bytecode": "0x60c0604052601460808190527f5377617043656e7472616c2045786368616e676500000000000000000000000060a090815261003e916000919061009a565b506103e860025534801561005157600080fd5b506040516103d73803806103d78339818101604052602081101561007457600080fd5b5051600180546001600160a01b0319166001600160a01b03909216919091179055610135565b828054600181600116156101000203166002900490600052602060002090601f016020900481019282601f106100db57805160ff1916838001178555610108565b82800160010185558215610108579182015b828111156101085782518255916020019190600101906100ed565b50610114929150610118565b5090565b61013291905b80821115610114576000815560010161011e565b90565b610293806101446000396000f3fe60806040526004361061003f5760003560e01c806306fdde03146100445780632c4e722e146100ce578063b72e3fc3146100f5578063d0febe4c14610126575b600080fd5b34801561005057600080fd5b50610059610130565b6040805160208082528351818301528351919283929083019185019080838360005b8381101561009357818101518382015260200161007b565b50505050905090810190601f1680156100c05780820380516001836020036101000a031916815260200191505b509250505060405180910390f35b3480156100da57600080fd5b506100e36101be565b60408051918252519081900360200190f35b34801561010157600080fd5b5061010a6101c4565b604080516001600160a01b039092168252519081900360200190f35b61012e6101d3565b005b6000805460408051602060026001851615610100026000190190941693909304601f810184900484028201840190925281815292918301828280156101b65780601f1061018b576101008083540402835291602001916101b6565b820191906000526020600020905b81548152906001019060200180831161019957829003601f168201915b505050505081565b60025481565b6001546001600160a01b031681565b6002546001546040805163a9059cbb60e01b81523360048201523490930260248401819052905190926001600160a01b039092169163a9059cbb9160448083019260209291908290030181600087803b15801561022f57600080fd5b505af1158015610243573d6000803e3d6000fd5b505050506040513d602081101561025957600080fd5b50505056fea265627a7a723158207a98afc23b8ced4228d175e2386c45ef6ff0215d5468edcd6cca0f9ef9180dea64736f6c63430005100032",
  "source": "pragma solidity ^0.5.0;\r\nimport \"./CentralToken.sol\";\r\n\r\ncontract SwapCentral{\r\n  string public name = \"SwapCentral Exchange\";\r\n  CentralToken public centralToken;\r\n  uint public rate = 1000;\r\n\r\n  constructor(CentralToken _centralToken) public {\r\n    centralToken = _centralToken;\r\n  }\r\n\r\n  function buyTokens() public payable {\r\n    //redemtion rate = # of tokens they receieve for 1 ether\r\n    //tokemAmount = amount of eth * redemtion rate\r\n    uint tokenAmount = msg.value * rate;\r\n    centralToken.transfer(msg.sender,tokenAmount);\r\n  }\r\n}\r\n",
  "sourcePath": "C:/Users/jjrab/OneDrive/Desktop/Dappdev/SwapCentral/contracts/SwapCentral.sol",
  "compiler": {
    "name": "solc",
    "version": "0.5.16+commit.9c3226ce.Emscripten.clang"
  },
  "schemaVersion": "3.3.4",
  "updatedAt": "2021-04-12T20:08:30.985Z",
  "networkType": "ethereum",
  "devdoc": {
    "methods": {}
  },
  "userdoc": {
    "methods": {}
  }
}